{
  "contractName": "Hostable",
  "abi": [
    {
      "constant": true,
      "inputs": [
        {
          "name": "",
          "type": "address"
        }
      ],
      "name": "participants",
      "outputs": [
        {
          "name": "index",
          "type": "uint256"
        },
        {
          "name": "booked",
          "type": "bool"
        },
        {
          "name": "arrived",
          "type": "bool"
        }
      ],
      "payable": false,
      "stateMutability": "view",
      "type": "function"
    },
    {
      "constant": true,
      "inputs": [
        {
          "name": "",
          "type": "uint256"
        }
      ],
      "name": "participantIndex",
      "outputs": [
        {
          "name": "",
          "type": "address"
        }
      ],
      "payable": false,
      "stateMutability": "view",
      "type": "function"
    },
    {
      "constant": true,
      "inputs": [],
      "name": "getTotalArrived",
      "outputs": [
        {
          "name": "",
          "type": "uint256"
        }
      ],
      "payable": false,
      "stateMutability": "view",
      "type": "function"
    },
    {
      "constant": true,
      "inputs": [
        {
          "name": "participantAddress",
          "type": "address"
        }
      ],
      "name": "_isParticipant",
      "outputs": [
        {
          "name": "isIndeed",
          "type": "bool"
        }
      ],
      "payable": false,
      "stateMutability": "view",
      "type": "function"
    }
  ],
  "bytecode": "0x6080604052336000806101000a81548173ffffffffffffffffffffffffffffffffffffffff021916908373ffffffffffffffffffffffffffffffffffffffff16021790555061049c806100536000396000f3fe608060405260043610610062576000357c0100000000000000000000000000000000000000000000000000000000900463ffffffff16806309e69ede1461006757806372a0b6c8146100e257806395c3be0b1461010d578063a89fb3a214610188575b600080fd5b34801561007357600080fd5b506100b66004803603602081101561008a57600080fd5b81019080803573ffffffffffffffffffffffffffffffffffffffff1690602001909291905050506101f1565b604051808481526020018315151515815260200182151515158152602001935050505060405180910390f35b3480156100ee57600080fd5b506100f7610235565b6040518082815260200191505060405180910390f35b34801561011957600080fd5b506101466004803603602081101561013057600080fd5b8101908080359060200190929190505050610342565b604051808273ffffffffffffffffffffffffffffffffffffffff1673ffffffffffffffffffffffffffffffffffffffff16815260200191505060405180910390f35b34801561019457600080fd5b506101d7600480360360208110156101ab57600080fd5b81019080803573ffffffffffffffffffffffffffffffffffffffff169060200190929190505050610380565b604051808215151515815260200191505060405180910390f35b60016020528060005260406000206000915090508060000154908060010160009054906101000a900460ff16908060010160019054906101000a900460ff16905083565b60008060008090505b60028054905081101561033a5761025361044a565b6001600060028481548110151561026657fe5b9060005260206000200160009054906101000a900473ffffffffffffffffffffffffffffffffffffffff1673ffffffffffffffffffffffffffffffffffffffff1673ffffffffffffffffffffffffffffffffffffffff16815260200190815260200160002060606040519081016040529081600082015481526020016001820160009054906101000a900460ff161515151581526020016001820160019054906101000a900460ff161515151581525050905080604001511561032c5782806001019350505b50808060010191505061023e565b508091505090565b60028181548110151561035157fe5b906000526020600020016000915054906101000a900473ffffffffffffffffffffffffffffffffffffffff1681565b60008060028054905014156103985760009050610445565b8173ffffffffffffffffffffffffffffffffffffffff166002600160008573ffffffffffffffffffffffffffffffffffffffff1673ffffffffffffffffffffffffffffffffffffffff1681526020019081526020016000206000015481548110151561040057fe5b9060005260206000200160009054906101000a900473ffffffffffffffffffffffffffffffffffffffff1673ffffffffffffffffffffffffffffffffffffffff161490505b919050565b60606040519081016040528060008152602001600015158152602001600015158152509056fea165627a7a7230582009b0b34c61ce857684caea8d3a0c1daa26e0d780fec90c10b348caf7a70674890029",
  "source": "pragma solidity >=0.4.25 <0.6.0;\r\n\r\nimport { Owned } from \"./Owned.sol\";\r\n\r\n/// @title Defines structures to work with Participants.\r\n/// @dev This is a supporting contract for Event.\r\n\r\ncontract Hostable is Owned\r\n{\r\n    struct Participant {\r\n        uint index;\r\n        bool booked;  // if true, that person already voted\r\n        bool arrived;  // if true, that person already voted\r\n    }\r\n\r\n    mapping(address => Participant) public participants;\r\n    \r\n    address[] public participantIndex;\r\n\r\n    function _saveParticipant(address participantAddress) internal {\r\n        require(_isParticipant(participantAddress)); \r\n        \r\n        participants[participantAddress].booked = true;\r\n        participants[participantAddress].index = participantIndex.push(participantAddress) - 1;\r\n        // return participantIndex.length - 1;\r\n    }\r\n\r\n    function _removeParticipant(address participantAddress) internal {\r\n        require(_isParticipant(participantAddress));\r\n        // Remove them from lookup table\r\n        uint rowToDelete = participants[participantAddress].index;\r\n        // Get last row address\r\n        address keyToMove = participantIndex[participantIndex.length - 1];\r\n        // Set it to the new position\r\n        participantIndex[rowToDelete] = keyToMove;\r\n        // And fix its index\r\n        participants[keyToMove].index = rowToDelete; \r\n        // The other value will be lost since it now isnt part of the lookup table\r\n        participantIndex.length--;\r\n    }\r\n\r\n    function getTotalArrived() public view returns (uint256) {\r\n        uint256 totalArrived;\r\n        for (uint i = 0; i < participantIndex.length; i++) {\r\n            Participant memory participant = participants[participantIndex[i]];\r\n            \r\n            if(participant.arrived) {\r\n                totalArrived++;\r\n            }\r\n        }\r\n        return totalArrived;\r\n    }\r\n\r\n    function _isParticipant(address participantAddress) public view returns(bool isIndeed) {\r\n        if(participantIndex.length == 0) { \r\n            return false;\r\n        }\r\n        return (participantIndex[participants[participantAddress].index] == participantAddress);\r\n    }\r\n}\r\n",
  "sourcePath": "/mnt/c/xampp/htdocs/hackcoin/contracts/libs/Hostable.sol",
  "compiler": {
    "name": "solc",
    "version": "0.5.0+commit.1d4f565a.Emscripten.clang"
  },
  "schemaVersion": "3.0.8",
  "updatedAt": "2019-04-28T11:11:56.627Z",
  "devdoc": {
    "details": "This is a supporting contract for Event.",
    "methods": {}
  },
  "userdoc": {
    "methods": {}
  }
}