{
  "contractName": "Priceable",
  "abi": [
    {
      "constant": true,
      "inputs": [],
      "name": "price",
      "outputs": [
        {
          "name": "",
          "type": "address"
        }
      ],
      "payable": false,
      "stateMutability": "view",
      "type": "function"
    },
    {
      "inputs": [],
      "payable": false,
      "stateMutability": "nonpayable",
      "type": "constructor"
    },
    {
      "anonymous": false,
      "inputs": [
        {
          "indexed": false,
          "name": "sender",
          "type": "address"
        },
        {
          "indexed": false,
          "name": "amount",
          "type": "uint256"
        }
      ],
      "name": "NewPayment",
      "type": "event"
    }
  ],
  "bytecode": "0x608060405234801561001057600080fd5b50738055d0504666e2b6942beb8d6014c964658ca5916000806101000a81548173ffffffffffffffffffffffffffffffffffffffff021916908373ffffffffffffffffffffffffffffffffffffffff16021790555060e9806100736000396000f3fe608060405260043610603f576000357c0100000000000000000000000000000000000000000000000000000000900463ffffffff168063a035b1fe146044575b600080fd5b348015604f57600080fd5b5060566098565b604051808273ffffffffffffffffffffffffffffffffffffffff1673ffffffffffffffffffffffffffffffffffffffff16815260200191505060405180910390f35b6000809054906101000a900473ffffffffffffffffffffffffffffffffffffffff168156fea165627a7a72305820ae4b1209118d91cd584e4d25ed1b141ab7294d85ffbd489a353dcd1dcfa0553c0029",
  "source": "pragma solidity >=0.4.25 <0.6.0;\r\n\r\nimport { FiatContract } from \"./FiatContract.sol\";\r\n\r\n/// @title A contract for event booking between an organizer and multiple participants\r\n/// @author Ruben B. Meseguer\r\n/// @notice You can use this contract for only the most basic simulation\r\n/// @dev All function calls are currently implemented without side effects\r\n\r\ncontract Priceable\r\n{\r\n    // implemenet cost\r\n    FiatContract public price;\r\n    event NewPayment(address sender, uint256 amount);\r\n    \r\n    // Create contract, it costs money to the owner\r\n    constructor() public {\r\n        price = FiatContract(0x8055d0504666e2B6942BeB8D6014c964658Ca591);        \r\n    }\r\n\r\n    function _verifyFiatCost(uint fiatCost) internal view returns (bool) {\r\n        return msg.value >= _getEtherCost(fiatCost);\r\n    }\r\n\r\n    // returns $5.00 USD in ETH wei.\r\n    function _getEtherCost(uint256 fiatCost) internal view returns (uint256) {\r\n        // returns $0.01 ETH wei\r\n        uint256 ethCent = price.USD(0);\r\n        // $0.01 * 500 = $5.0\r\n        return ethCent * (fiatCost * 100);\r\n    }\r\n}\r\n",
  "sourcePath": "/mnt/c/xampp/htdocs/hackcoin/contracts/libs/Priceable.sol",
  "compiler": {
    "name": "solc",
    "version": "0.5.0+commit.1d4f565a.Emscripten.clang"
  },
  "schemaVersion": "3.0.8",
  "updatedAt": "2019-04-28T11:11:56.657Z",
  "devdoc": {
    "details": "All function calls are currently implemented without side effects",
    "methods": {}
  },
  "userdoc": {
    "methods": {}
  }
}